{
  "contractName": "SolnSquareVerifier",
  "abi": [
    {
      "inputs": [
        {
          "internalType": "address",
          "name": "addrOfVerifier",
          "type": "address"
        }
      ],
      "payable": false,
      "stateMutability": "nonpayable",
      "type": "constructor"
    },
    {
      "anonymous": false,
      "inputs": [
        {
          "indexed": true,
          "internalType": "address",
          "name": "owner",
          "type": "address"
        },
        {
          "indexed": true,
          "internalType": "address",
          "name": "approved",
          "type": "address"
        },
        {
          "indexed": true,
          "internalType": "uint256",
          "name": "tokenId",
          "type": "uint256"
        }
      ],
      "name": "Approval",
      "type": "event"
    },
    {
      "anonymous": false,
      "inputs": [
        {
          "indexed": true,
          "internalType": "address",
          "name": "owner",
          "type": "address"
        },
        {
          "indexed": true,
          "internalType": "address",
          "name": "operator",
          "type": "address"
        },
        {
          "indexed": false,
          "internalType": "bool",
          "name": "approved",
          "type": "bool"
        }
      ],
      "name": "ApprovalForAll",
      "type": "event"
    },
    {
      "anonymous": false,
      "inputs": [
        {
          "indexed": false,
          "internalType": "address",
          "name": "person",
          "type": "address"
        }
      ],
      "name": "Paused",
      "type": "event"
    },
    {
      "anonymous": false,
      "inputs": [
        {
          "indexed": true,
          "internalType": "address",
          "name": "from",
          "type": "address"
        },
        {
          "indexed": true,
          "internalType": "address",
          "name": "to",
          "type": "address"
        },
        {
          "indexed": true,
          "internalType": "uint256",
          "name": "tokenId",
          "type": "uint256"
        }
      ],
      "name": "Transfer",
      "type": "event"
    },
    {
      "anonymous": false,
      "inputs": [
        {
          "indexed": false,
          "internalType": "address",
          "name": "person",
          "type": "address"
        }
      ],
      "name": "Unpaused",
      "type": "event"
    },
    {
      "anonymous": false,
      "inputs": [
        {
          "indexed": true,
          "internalType": "address",
          "name": "oldOwnerAddress",
          "type": "address"
        },
        {
          "indexed": true,
          "internalType": "address",
          "name": "newOwnerAddress",
          "type": "address"
        }
      ],
      "name": "ownershipTransferred",
      "type": "event"
    },
    {
      "anonymous": false,
      "inputs": [
        {
          "indexed": false,
          "internalType": "address",
          "name": "from",
          "type": "address"
        },
        {
          "indexed": false,
          "internalType": "uint256",
          "name": "index1",
          "type": "uint256"
        }
      ],
      "name": "solutionAdded",
      "type": "event"
    },
    {
      "constant": false,
      "inputs": [
        {
          "internalType": "bytes32",
          "name": "_myid",
          "type": "bytes32"
        },
        {
          "internalType": "string",
          "name": "_result",
          "type": "string"
        }
      ],
      "name": "__callback",
      "outputs": [],
      "payable": false,
      "stateMutability": "nonpayable",
      "type": "function"
    },
    {
      "constant": false,
      "inputs": [
        {
          "internalType": "bytes32",
          "name": "_myid",
          "type": "bytes32"
        },
        {
          "internalType": "string",
          "name": "_result",
          "type": "string"
        },
        {
          "internalType": "bytes",
          "name": "_proof",
          "type": "bytes"
        }
      ],
      "name": "__callback",
      "outputs": [],
      "payable": false,
      "stateMutability": "nonpayable",
      "type": "function"
    },
    {
      "constant": false,
      "inputs": [
        {
          "internalType": "address",
          "name": "to",
          "type": "address"
        },
        {
          "internalType": "uint256",
          "name": "tokenId",
          "type": "uint256"
        }
      ],
      "name": "approve",
      "outputs": [],
      "payable": false,
      "stateMutability": "nonpayable",
      "type": "function"
    },
    {
      "constant": true,
      "inputs": [
        {
          "internalType": "address",
          "name": "owner",
          "type": "address"
        }
      ],
      "name": "balanceOf",
      "outputs": [
        {
          "internalType": "uint256",
          "name": "",
          "type": "uint256"
        }
      ],
      "payable": false,
      "stateMutability": "view",
      "type": "function"
    },
    {
      "constant": true,
      "inputs": [],
      "name": "baseTokenURI",
      "outputs": [
        {
          "internalType": "string",
          "name": "",
          "type": "string"
        }
      ],
      "payable": false,
      "stateMutability": "view",
      "type": "function"
    },
    {
      "constant": true,
      "inputs": [
        {
          "internalType": "uint256",
          "name": "tokenId",
          "type": "uint256"
        }
      ],
      "name": "getApproved",
      "outputs": [
        {
          "internalType": "address",
          "name": "",
          "type": "address"
        }
      ],
      "payable": false,
      "stateMutability": "view",
      "type": "function"
    },
    {
      "constant": true,
      "inputs": [
        {
          "internalType": "address",
          "name": "owner",
          "type": "address"
        },
        {
          "internalType": "address",
          "name": "operator",
          "type": "address"
        }
      ],
      "name": "isApprovedForAll",
      "outputs": [
        {
          "internalType": "bool",
          "name": "",
          "type": "bool"
        }
      ],
      "payable": false,
      "stateMutability": "view",
      "type": "function"
    },
    {
      "constant": false,
      "inputs": [
        {
          "internalType": "address",
          "name": "to",
          "type": "address"
        },
        {
          "internalType": "uint256",
          "name": "tokenId",
          "type": "uint256"
        }
      ],
      "name": "mint",
      "outputs": [
        {
          "internalType": "bool",
          "name": "",
          "type": "bool"
        }
      ],
      "payable": false,
      "stateMutability": "nonpayable",
      "type": "function"
    },
    {
      "constant": true,
      "inputs": [],
      "name": "name",
      "outputs": [
        {
          "internalType": "string",
          "name": "",
          "type": "string"
        }
      ],
      "payable": false,
      "stateMutability": "view",
      "type": "function"
    },
    {
      "constant": true,
      "inputs": [],
      "name": "owner",
      "outputs": [
        {
          "internalType": "address",
          "name": "",
          "type": "address"
        }
      ],
      "payable": false,
      "stateMutability": "view",
      "type": "function"
    },
    {
      "constant": true,
      "inputs": [
        {
          "internalType": "uint256",
          "name": "tokenId",
          "type": "uint256"
        }
      ],
      "name": "ownerOf",
      "outputs": [
        {
          "internalType": "address",
          "name": "",
          "type": "address"
        }
      ],
      "payable": false,
      "stateMutability": "view",
      "type": "function"
    },
    {
      "constant": false,
      "inputs": [
        {
          "internalType": "address",
          "name": "from",
          "type": "address"
        },
        {
          "internalType": "address",
          "name": "to",
          "type": "address"
        },
        {
          "internalType": "uint256",
          "name": "tokenId",
          "type": "uint256"
        }
      ],
      "name": "safeTransferFrom",
      "outputs": [],
      "payable": false,
      "stateMutability": "nonpayable",
      "type": "function"
    },
    {
      "constant": false,
      "inputs": [
        {
          "internalType": "address",
          "name": "from",
          "type": "address"
        },
        {
          "internalType": "address",
          "name": "to",
          "type": "address"
        },
        {
          "internalType": "uint256",
          "name": "tokenId",
          "type": "uint256"
        },
        {
          "internalType": "bytes",
          "name": "_data",
          "type": "bytes"
        }
      ],
      "name": "safeTransferFrom",
      "outputs": [],
      "payable": false,
      "stateMutability": "nonpayable",
      "type": "function"
    },
    {
      "constant": false,
      "inputs": [
        {
          "internalType": "address",
          "name": "to",
          "type": "address"
        },
        {
          "internalType": "bool",
          "name": "approved",
          "type": "bool"
        }
      ],
      "name": "setApprovalForAll",
      "outputs": [],
      "payable": false,
      "stateMutability": "nonpayable",
      "type": "function"
    },
    {
      "constant": false,
      "inputs": [
        {
          "internalType": "bool",
          "name": "pause",
          "type": "bool"
        }
      ],
      "name": "setPaused",
      "outputs": [],
      "payable": false,
      "stateMutability": "nonpayable",
      "type": "function"
    },
    {
      "constant": true,
      "inputs": [],
      "name": "squareVerifier",
      "outputs": [
        {
          "internalType": "contract SquareVerifier",
          "name": "",
          "type": "address"
        }
      ],
      "payable": false,
      "stateMutability": "view",
      "type": "function"
    },
    {
      "constant": true,
      "inputs": [
        {
          "internalType": "bytes4",
          "name": "interfaceId",
          "type": "bytes4"
        }
      ],
      "name": "supportsInterface",
      "outputs": [
        {
          "internalType": "bool",
          "name": "",
          "type": "bool"
        }
      ],
      "payable": false,
      "stateMutability": "view",
      "type": "function"
    },
    {
      "constant": true,
      "inputs": [],
      "name": "symbol",
      "outputs": [
        {
          "internalType": "string",
          "name": "",
          "type": "string"
        }
      ],
      "payable": false,
      "stateMutability": "view",
      "type": "function"
    },
    {
      "constant": true,
      "inputs": [
        {
          "internalType": "uint256",
          "name": "index",
          "type": "uint256"
        }
      ],
      "name": "tokenByIndex",
      "outputs": [
        {
          "internalType": "uint256",
          "name": "",
          "type": "uint256"
        }
      ],
      "payable": false,
      "stateMutability": "view",
      "type": "function"
    },
    {
      "constant": true,
      "inputs": [
        {
          "internalType": "address",
          "name": "owner",
          "type": "address"
        },
        {
          "internalType": "uint256",
          "name": "index",
          "type": "uint256"
        }
      ],
      "name": "tokenOfOwnerByIndex",
      "outputs": [
        {
          "internalType": "uint256",
          "name": "",
          "type": "uint256"
        }
      ],
      "payable": false,
      "stateMutability": "view",
      "type": "function"
    },
    {
      "constant": true,
      "inputs": [
        {
          "internalType": "uint256",
          "name": "tokenId",
          "type": "uint256"
        }
      ],
      "name": "tokenURI",
      "outputs": [
        {
          "internalType": "string",
          "name": "",
          "type": "string"
        }
      ],
      "payable": false,
      "stateMutability": "view",
      "type": "function"
    },
    {
      "constant": true,
      "inputs": [],
      "name": "totalSupply",
      "outputs": [
        {
          "internalType": "uint256",
          "name": "",
          "type": "uint256"
        }
      ],
      "payable": false,
      "stateMutability": "view",
      "type": "function"
    },
    {
      "constant": false,
      "inputs": [
        {
          "internalType": "address",
          "name": "from",
          "type": "address"
        },
        {
          "internalType": "address",
          "name": "to",
          "type": "address"
        },
        {
          "internalType": "uint256",
          "name": "tokenId",
          "type": "uint256"
        }
      ],
      "name": "transferFrom",
      "outputs": [],
      "payable": false,
      "stateMutability": "nonpayable",
      "type": "function"
    },
    {
      "constant": false,
      "inputs": [
        {
          "internalType": "address",
          "name": "newOwner",
          "type": "address"
        }
      ],
      "name": "transferOwnership",
      "outputs": [],
      "payable": false,
      "stateMutability": "nonpayable",
      "type": "function"
    },
    {
      "constant": false,
      "inputs": [
        {
          "internalType": "uint256",
          "name": "index1",
          "type": "uint256"
        },
        {
          "internalType": "address",
          "name": "address1",
          "type": "address"
        },
        {
          "internalType": "uint256[2]",
          "name": "A",
          "type": "uint256[2]"
        },
        {
          "internalType": "uint256[2][2]",
          "name": "B",
          "type": "uint256[2][2]"
        },
        {
          "internalType": "uint256[2]",
          "name": "C",
          "type": "uint256[2]"
        },
        {
          "internalType": "uint256[2]",
          "name": "INPUT",
          "type": "uint256[2]"
        }
      ],
      "name": "addSolution",
      "outputs": [],
      "payable": false,
      "stateMutability": "nonpayable",
      "type": "function"
    },
    {
      "constant": true,
      "inputs": [],
      "name": "getSolutionsCount",
      "outputs": [
        {
          "internalType": "uint256",
          "name": "",
          "type": "uint256"
        }
      ],
      "payable": false,
      "stateMutability": "view",
      "type": "function"
    },
    {
      "constant": false,
      "inputs": [
        {
          "internalType": "uint256[2]",
          "name": "A",
          "type": "uint256[2]"
        },
        {
          "internalType": "uint256[2][2]",
          "name": "B",
          "type": "uint256[2][2]"
        },
        {
          "internalType": "uint256[2]",
          "name": "C",
          "type": "uint256[2]"
        },
        {
          "internalType": "uint256[2]",
          "name": "INPUT",
          "type": "uint256[2]"
        },
        {
          "internalType": "uint256",
          "name": "ID",
          "type": "uint256"
        }
      ],
      "name": "tokenMint",
      "outputs": [
        {
          "internalType": "bool",
          "name": "",
          "type": "bool"
        }
      ],
      "payable": false,
      "stateMutability": "nonpayable",
      "type": "function"
    }
  ],
  "bytecode": "0x60806040523480156200001157600080fd5b506040516200286238038062002862833981810160405260208110156200003757600080fd5b505160408051606081019091526025808252620027fe6020830139604051806040016040528060068152602001652922a6a126a160d11b8152506040518060600160405280603f815260200162002823603f9139600080546001600160a01b03191633178082556040516001600160a01b039190911691907f7699c77f2404f9b6bbd003861bb4af8ae70b205e19e73d7ec7fe4590db59a6b7908290a36000805460ff60a01b19169055620000fc6301ffc9a760e01b6001600160e01b03620001b916565b620001176380ac58cd60e01b6001600160e01b03620001b916565b6200013263780e9d6360e01b6001600160e01b03620001b916565b82516200014790600f906020860190620001f9565b5081516200015d906010906020850190620001f9565b50805162000173906011906020840190620001f9565b506200018f635b5e139f60e01b6001600160e01b03620001b916565b5050601480546001600160a01b0319166001600160a01b039390931692909217909155506200029e565b6001600160e01b03198082161415620001d157600080fd5b6001600160e01b0319166000908152600160208190526040909120805460ff19169091179055565b828054600181600116156101000203166002900490600052602060002090601f016020900481019282601f106200023c57805160ff19168380011785556200026c565b828001600101855582156200026c579182015b828111156200026c5782518255916020019190600101906200024f565b506200027a9291506200027e565b5090565b6200029b91905b808211156200027a576000815560010162000285565b90565b61255080620002ae6000396000f3fe608060405234801561001057600080fd5b50600436106101b95760003560e01c80634c1b1c93116100f9578063b0bf8aec11610097578063d547cfb711610071578063d547cfb71461094d578063e985e9c514610955578063f2fde38b14610983578063f4c5d354146109a9576101b9565b8063b0bf8aec1461075c578063b88d4fde1461086a578063c87b56dd14610930576101b9565b806370a08231116100d357806370a08231146106f85780638da5cb5b1461071e57806395d89b4114610726578063a22cb4651461072e576101b9565b80634c1b1c93146106b65780634f6ccce7146106be5780636352211e146106db576101b9565b806323b872dd1161016657806338bbfa501161014057806338bbfa501461042557806340c10f191461055957806341d58d3d1461058557806342842e0e14610680576101b9565b806323b872dd1461031657806327dc297e1461034c5780632f745c59146103f9576101b9565b8063095ea7b311610197578063095ea7b3146102af57806316c38b3c146102dd57806318160ddd146102fc576101b9565b806301ffc9a7146101be57806306fdde03146101f9578063081812fc14610276575b600080fd5b6101e5600480360360208110156101d457600080fd5b50356001600160e01b0319166109b1565b604080519115158252519081900360200190f35b6102016109d4565b6040805160208082528351818301528351919283929083019185019080838360005b8381101561023b578181015183820152602001610223565b50505050905090810190601f1680156102685780820380516001836020036101000a031916815260200191505b509250505060405180910390f35b6102936004803603602081101561028c57600080fd5b5035610a6b565b604080516001600160a01b039092168252519081900360200190f35b6102db600480360360408110156102c557600080fd5b506001600160a01b038135169060200135610a86565b005b6102db600480360360208110156102f357600080fd5b50351515610bc9565b610304610cf8565b60408051918252519081900360200190f35b6102db6004803603606081101561032c57600080fd5b506001600160a01b03813581169160208101359091169060400135610cfe565b6102db6004803603604081101561036257600080fd5b8135919081019060408101602082013564010000000081111561038457600080fd5b82018360208201111561039657600080fd5b803590602001918460018302840111640100000000831117156103b857600080fd5b91908080601f016020809104026020016040519081016040528093929190818152602001838380828437600092019190915250929550610d21945050505050565b6103046004803603604081101561040f57600080fd5b506001600160a01b038135169060200135610d41565b6102db6004803603606081101561043b57600080fd5b8135919081019060408101602082013564010000000081111561045d57600080fd5b82018360208201111561046f57600080fd5b8035906020019184600183028401116401000000008311171561049157600080fd5b91908080601f01602080910402602001604051908101604052809392919081815260200183838082843760009201919091525092959493602081019350359150506401000000008111156104e457600080fd5b8201836020820111156104f657600080fd5b8035906020019184600183028401116401000000008311171561051857600080fd5b91908080601f016020809104026020016040519081016040528093929190818152602001838380828437600092019190915250929550610d1c945050505050565b6101e56004803603604081101561056f57600080fd5b506001600160a01b038135169060200135610d8e565b6101e5600480360361016081101561059c57600080fd5b6040805180820182529183019291818301918390600290839083908082843760009201829052506040805180820190915293969594608081019493509150600290835b8282101561061d57604080518082018252908084028601906002908390839080828437600092019190915250505081526001909101906020016105df565b5050604080518082018252939695948181019493509150600290839083908082843760009201919091525050604080518082018252929594938181019392509060029083908390808284376000920191909152509194505090359150610dfa9050565b6102db6004803603606081101561069657600080fd5b506001600160a01b03813581169160208101359091169060400135611119565b610293611134565b610304600480360360208110156106d457600080fd5b5035611143565b610293600480360360208110156106f157600080fd5b5035611177565b6103046004803603602081101561070e57600080fd5b50356001600160a01b0316611192565b6102936111b9565b6102016111c8565b6102db6004803603604081101561074457600080fd5b506001600160a01b0381351690602001351515611229565b6102db600480360361018081101561077357600080fd5b6040805180820182528335936001600160a01b03602082013516938101929091608083019180840190600290839083908082843760009201829052506040805180820190915293969594608081019493509150600290835b8282101561080957604080518082018252908084028601906002908390839080828437600092019190915250505081526001909101906020016107cb565b5050604080518082018252939695948181019493509150600290839083908082843760009201919091525050604080518082018252929594938181019392509060029083908390808284376000920191909152509194506112ad9350505050565b6102db6004803603608081101561088057600080fd5b6001600160a01b038235811692602081013590911691604082013591908101906080810160608201356401000000008111156108bb57600080fd5b8201836020820111156108cd57600080fd5b803590602001918460018302840111640100000000831117156108ef57600080fd5b91908080601f0160208091040260200160405190810160405280939291908181526020018383808284376000920191909152509295506114f8945050505050565b6102016004803603602081101561094657600080fd5b503561151e565b6102016115d1565b6101e56004803603604081101561096b57600080fd5b506001600160a01b0381358116916020013516611632565b6102db6004803603602081101561099957600080fd5b50356001600160a01b0316611660565b61030461178e565b6001600160e01b0319811660009081526001602052604090205460ff165b919050565b600f8054604080516020601f6002600019610100600188161502019095169490940493840181900481028201810190925282815260609390929091830182828015610a605780601f10610a3557610100808354040283529160200191610a60565b820191906000526020600020905b815481529060010190602001808311610a4357829003601f168201915b505050505090505b90565b6000908152600360205260409020546001600160a01b031690565b6000818152600260205260409020546001600160a01b0383811691161415610adf5760405162461bcd60e51b815260040180806020018281038252602781526020018061240d6027913960400191505060405180910390fd5b6000818152600260205260409020546001600160a01b0316331480610b215750600081815260026020526040902054610b21906001600160a01b031633611632565b610b62576040805162461bcd60e51b815260206004820152600d60248201526c4e6f7420617070726f7665642160981b604482015290519081900360640190fd5b600081815260036020908152604080832080546001600160a01b0319166001600160a01b038781169182179092556002909352818420549151859492909116917f8c5be1e5ebec7d5bd14f71427d1e84f3dd0314c0f7b2291e5b200ac8c7c3b92591a45050565b6000546001600160a01b03163314610c125760405162461bcd60e51b815260040180806020018281038252602e8152602001806124af602e913960400191505060405180910390fd5b600060149054906101000a900460ff1615158115151415610c645760405162461bcd60e51b815260040180806020018281038252602f81526020018061245a602f913960400191505060405180910390fd5b6000805460ff60a01b1916600160a01b8315159081029190911790915560011415610cc1576040805133815290517f62e78cea01bee320cd4e420270b5ea74000d11b0c9f74754ebdbfc544b05a2589181900360200190a1610cf5565b6040805133815290517f5db9ee0a495bf2e6ff9c91a7834c1ba4fdd244a5e8aa4e537bd38aeae4b073aa9181900360200190a15b50565b60085490565b610d083382611794565b610d1157600080fd5b610d1c8383836117f3565b505050565b604080516000815260208101909152610d3d9083908390610d1c565b5050565b6000610d4c83611192565b8210610d5757600080fd5b6001600160a01b0383166000908152600660205260409020805483908110610d7b57fe5b9060005260206000200154905092915050565b600033610d996111b9565b6001600160a01b031614610dde5760405162461bcd60e51b81526004018080602001828103825260268152602001806124346026913960400191505060405180910390fd5b610de88383611812565b610df18261182f565b50600192915050565b600080868686866040516020018085600260200280838360005b83811015610e2c578181015183820152602001610e14565b505050509050018460026000925b81841015610e7a5760208402830151604080838360005b83811015610e69578181015183820152602001610e51565b505050509050019260010192610e3a565b9250505083600260200280838360005b83811015610ea2578181015183820152602001610e8a565b5050505090500182600260200280838360005b83811015610ecd578181015183820152602001610eb5565b505050509050019450505050506040516020818303038152906040528051906020012090506015600082815260200190815260200160002060020154600014610f5d576040805162461bcd60e51b815260206004820152601560248201527f536f6c7574696f6e2075736564206265666f7265210000000000000000000000604482015290519081900360640190fd5b601454604080516301887a7b60e61b81526001600160a01b039092169163621e9ec0918a918a918a918a916004909101908190869080838360005b83811015610fb0578181015183820152602001610f98565b505050509050018460026000925b81841015610ffe5760208402830151604080838360005b83811015610fed578181015183820152602001610fd5565b505050509050019260010192610fbe565b9250505083600260200280838360005b8381101561102657818101518382015260200161100e565b5050505090500182600260200280838360005b83811015611051578181015183820152602001611039565b5050505090500194505050505060206040518083038186803b15801561107657600080fd5b505afa15801561108a573d6000803e3d6000fd5b505050506040513d60208110156110a057600080fd5b50516110f3576040805162461bcd60e51b815260206004820152601360248201527f496e636f727265637420536f6c7574696f6e2100000000000000000000000000604482015290519081900360640190fd5b6111018333898989896112ad565b600061110d3385610d8e565b98975050505050505050565b610d1c838383604051806020016040528060008152506114f8565b6014546001600160a01b031681565b600061114d610cf8565b821061115857600080fd5b6008828154811061116557fe5b90600052602060002001549050919050565b6000908152600260205260409020546001600160a01b031690565b6001600160a01b03811660009081526004602052604081206111b39061194f565b92915050565b6000546001600160a01b031690565b60108054604080516020601f6002600019610100600188161502019095169490940493840181900481028201810190925282815260609390929091830182828015610a605780601f10610a3557610100808354040283529160200191610a60565b6001600160a01b03821633141561123f57600080fd5b3360008181526005602090815260408083206001600160a01b03871680855290835292819020805460ff1916861515908117909155815190815290519293927f17307eab39ab6107e8899845ad3d59bd9653f200f220920489ca2b5937696c31929181900390910190a35050565b6112b561232a565b6040518060600160405280888152602001876001600160a01b03168152602001600181525090506000858585856040516020018085600260200280838360005b8381101561130d5781810151838201526020016112f5565b505050509050018460026000925b8184101561135b5760208402830151604080838360005b8381101561134a578181015183820152602001611332565b50505050905001926001019261131b565b9250505083600260200280838360005b8381101561138357818101518382015260200161136b565b5050505090500182600260200280838360005b838110156113ae578181015183820152602001611396565b5050505090500194505050505060405160208183030381529060405280519060200120905081601560008381526020019081526020016000206000820151816000015560208201518160010160006101000a8154816001600160a01b0302191690836001600160a01b0316021790555060408201518160020155905050601382908060018154018082558091505090600182039060005260206000209060030201600090919290919091506000820151816000015560208201518160010160006101000a8154816001600160a01b0302191690836001600160a01b03160217905550604082015181600201555050507f4eb6cf99c4a7d16c60503cd7a765dcd26857babdf265322b1115b55b502d261f878960405180836001600160a01b03166001600160a01b031681526020018281526020019250505060405180910390a15050505050505050565b611503848484610cfe565b61150f84848484611953565b61151857600080fd5b50505050565b606061152982611a86565b61153257600080fd5b60008281526012602090815260409182902080548351601f6002600019610100600186161502019093169290920491820184900484028101840190945280845290918301828280156115c55780601f1061159a576101008083540402835291602001916115c5565b820191906000526020600020905b8154815290600101906020018083116115a857829003601f168201915b50505050509050919050565b60118054604080516020601f6002600019610100600188161502019095169490940493840181900481028201810190925282815260609390929091830182828015610a605780601f10610a3557610100808354040283529160200191610a60565b6001600160a01b03918216600090815260056020908152604080832093909416825291909152205460ff1690565b6000546001600160a01b031633146116a95760405162461bcd60e51b815260040180806020018281038252602e8152602001806124af602e913960400191505060405180910390fd5b6001600160a01b0381166116ee5760405162461bcd60e51b81526004018080602001828103825260268152602001806124896026913960400191505060405180910390fd5b6000546001600160a01b038281169116141561173e576040805162461bcd60e51b815260206004820152600a60248201526929b0b6b29037bbb732b960b11b604482015290519081900360640190fd5b600080546001600160a01b038381166001600160a01b0319831681178455604051919092169283917f7699c77f2404f9b6bbd003861bb4af8ae70b205e19e73d7ec7fe4590db59a6b79190a35050565b60135490565b6000806117a083611177565b9050806001600160a01b0316846001600160a01b031614806117db5750836001600160a01b03166117d084610a6b565b6001600160a01b0316145b806117eb57506117eb8185611632565b949350505050565b6117fe838383611aa3565b6118088382611bfd565b610d1c8282611cf2565b61181c8282611d30565b6118268282611cf2565b610d3d81611e61565b61183881611a86565b611889576040805162461bcd60e51b815260206004820152601e60248201527f546f6b656e2070726f766964656420646f6573206e6f74206578697374210000604482015290519081900360640190fd5b606061189482611ea5565b6011805460408051602060026001851615610100026000190190941693909304601f810184900484028201840190925281815293945061192c9392918301828280156119215780601f106118f657610100808354040283529160200191611921565b820191906000526020600020905b81548152906001019060200180831161190457829003601f168201915b505050505082611f66565b60008381526012602090815260409091208251610d1c9391929190910190612354565b5490565b6000611967846001600160a01b0316611fa9565b611973575060016117eb565b604051630a85bd0160e11b815233600482018181526001600160a01b03888116602485015260448401879052608060648501908152865160848601528651600095928a169463150b7a029490938c938b938b939260a4019060208501908083838e5b838110156119ed5781810151838201526020016119d5565b50505050905090810190601f168015611a1a5780820380516001836020036101000a031916815260200191505b5095505050505050602060405180830381600087803b158015611a3c57600080fd5b505af1158015611a50573d6000803e3d6000fd5b505050506040513d6020811015611a6657600080fd5b50516001600160e01b031916630a85bd0160e11b14915050949350505050565b6000908152600260205260409020546001600160a01b0316151590565b6000818152600260205260409020546001600160a01b03848116911614611b11576040805162461bcd60e51b815260206004820152601e60248201527f46726f6d2061646472657373206973206e6f7420746865206f776e6572210000604482015290519081900360640190fd5b6001600160a01b038216611b565760405162461bcd60e51b815260040180806020018281038252603f8152602001806124dd603f913960400191505060405180910390fd5b611b5f81611fe2565b6001600160a01b0382166000908152600460205260409020611b809061201d565b6001600160a01b0383166000908152600460205260409020611ba190612026565b60008181526002602052604080822080546001600160a01b0319166001600160a01b0386811691821790925591518493918716917fddf252ad1be2c89b69c2b068fc378daa952ba7f163c4a11628f55a4df523b3ef91a4505050565b6001600160a01b038216600090815260066020526040812054611c2790600163ffffffff61203d16565b600083815260076020526040902054909150808214611cc2576001600160a01b0384166000908152600660205260408120805484908110611c6457fe5b906000526020600020015490508060066000876001600160a01b03166001600160a01b031681526020019081526020016000208381548110611ca257fe5b600091825260208083209091019290925591825260079052604090208190555b6001600160a01b0384166000908152600660205260409020805490611ceb9060001983016123d2565b5050505050565b6001600160a01b0390911660009081526006602081815260408084208054868652600784529185208290559282526001810183559183529091200155565b611d3981611a86565b15611d8b576040805162461bcd60e51b815260206004820152601c60248201527f54686520746f6b656e20494420616c7265616479206578697374732100000000604482015290519081900360640190fd5b6001600160a01b038216611de6576040805162461bcd60e51b815260206004820152601f60248201527f54686520676976656e2061646472657373206973206e6f742076616c69642100604482015290519081900360640190fd5b600081815260026020908152604080832080546001600160a01b0319166001600160a01b038716908117909155835260049091529020611e259061201d565b60405181906001600160a01b0384169033907fddf252ad1be2c89b69c2b068fc378daa952ba7f163c4a11628f55a4df523b3ef90600090a45050565b600880546000838152600960205260408120829055600182018355919091527ff3f7a9fe364faab93b216da50a3214154f22a0a2b415b23a84c8169e8b636ee30155565b606081611eca57506040805180820190915260018152600360fc1b60208201526109cf565b8160005b8115611ee257600101600a82049150611ece565b6060816040519080825280601f01601f191660200182016040528015611f0f576020820181803883390190505b50905060001982015b8515611f5d57600a860660300160f81b82828060019003935081518110611f3b57fe5b60200101906001600160f81b031916908160001a905350600a86049550611f18565b50949350505050565b6060611fa2838360405180602001604052806000815250604051806020016040528060008152506040518060200160405280600081525061207f565b9392505050565b6000813f7fc5d2460186f7233c927e7db2dcc703c0e500b653ca82273b7bfad8045d85a4708181148015906117eb575050151592915050565b6000818152600360205260409020546001600160a01b031615610cf557600090815260036020526040902080546001600160a01b0319169055565b80546001019055565b805461203990600163ffffffff61203d16565b9055565b6000611fa283836040518060400160405280601e81526020017f536166654d6174683a207375627472616374696f6e206f766572666c6f770000815250612293565b6060808690506060869050606086905060608690506060869050606081518351855187518951010101016040519080825280601f01601f1916602001820160405280156120d3576020820181803883390190505b509050806000805b885181101561212c578881815181106120f057fe5b602001015160f81c60f81b83838060010194508151811061210d57fe5b60200101906001600160f81b031916908160001a9053506001016120db565b5060005b87518110156121815787818151811061214557fe5b602001015160f81c60f81b83838060010194508151811061216257fe5b60200101906001600160f81b031916908160001a905350600101612130565b5060005b86518110156121d65786818151811061219a57fe5b602001015160f81c60f81b8383806001019450815181106121b757fe5b60200101906001600160f81b031916908160001a905350600101612185565b5060005b855181101561222b578581815181106121ef57fe5b602001015160f81c60f81b83838060010194508151811061220c57fe5b60200101906001600160f81b031916908160001a9053506001016121da565b5060005b84518110156122805784818151811061224457fe5b602001015160f81c60f81b83838060010194508151811061226157fe5b60200101906001600160f81b031916908160001a90535060010161222f565b50909d9c50505050505050505050505050565b600081848411156123225760405162461bcd60e51b81526004018080602001828103825283818151815260200191508051906020019080838360005b838110156122e75781810151838201526020016122cf565b50505050905090810190601f1680156123145780820380516001836020036101000a031916815260200191505b509250505060405180910390fd5b505050900390565b60405180606001604052806000815260200160006001600160a01b03168152602001600081525090565b828054600181600116156101000203166002900490600052602060002090601f016020900481019282601f1061239557805160ff19168380011785556123c2565b828001600101855582156123c2579182015b828111156123c25782518255916020019190600101906123a7565b506123ce9291506123f2565b5090565b815481835581811115610d1c57600083815260209020610d1c9181019083015b610a6891905b808211156123ce57600081556001016123f856fe5468697320697320616c726561647920746865206f776e6572206f662074686520746f6b656e2146756e6374696f6e206973206e6f74206265696e672063616c6c6564206279206f776e657221436f6e747261637420697320616c726561647920696e20746865207374617465207468617420796f752073656e74214164726573732070726f7669646564206973206e6f742061207265616c2061646472657373215468652066756e6374696f6e206973206e6f74206265696e672063616c6c656420627920746865206f776e6572214f776e657273686970206f6620746f6b656e206973206e6f74206265696e67207472616e7366657272656420746f20612076616c6964206164647265737321a265627a7a7231582005d4880efbc530f60eb4a65c2239049e4616e0b737fcec647a0db83654c1be5e64736f6c634300051100325265616c20457374617465204d61726b6574706c616365204279204d697261204261686f7568747470733a2f2f73332d75732d776573742d322e616d617a6f6e6177732e636f6d2f756461636974792d626c6f636b636861696e2f63617073746f6e652f",
  "source": "pragma solidity >=0.4.21 <0.6.0;\r\n\r\nimport \"./verifier.sol\";\r\nimport \"./ERC721Mintable.sol\";\r\n\r\n// TODO define a contract call to the zokrates generated solidity contract <Verifier> or <renamedVerifier>\r\ncontract SquareVerifier is Verifier {\r\n    // I checked 2_deploy_contracts.js and found that a contract called SquareVerifier will be deployed,\r\n    // based on my understanding, the following contract needs to be put here and made this way.\r\n}\r\n\r\n// TODO define another contract named SolnSquareVerifier that inherits from your ERC721Mintable class\r\n\r\ncontract SolnSquareVerifier is FinalERC721Token {\r\n    // TODO define a solutions struct that can hold an index & an address\r\n\r\n    struct solutions {\r\n        uint256 index;\r\n        address addressSol;\r\n        uint256 solutionProvided; // If 1 --> means that the solution is already provided, if 0 --> means that solution is not yet provided\r\n        // I created the solutionProvided to assist me in tracking if a solution is unique or no, if 1 the solution is NOT unique and if 0 solution IS unique\r\n    }\r\n\r\n    // TODO define an array of the above struct\r\n    solutions[] solutionsArray;\r\n\r\n    // Verifier squareVerifier;\r\n    SquareVerifier public squareVerifier;\r\n\r\n    // TODO define a mapping to store unique solutions submitted\r\n    mapping(bytes32 => solutions) uniqueSolutions;\r\n    // Based on my understanding and after researching and looking at YouTube videos that explain the project as well as\r\n    // mentor answers, I understood that I need to use a hashing function (keccak256) of a,b,c and input\r\n    // to show that the solution is unique\r\n\r\n    // TODO Create an event to emit when a solution is added\r\n\r\n    event solutionAdded(address from, uint256 index1);\r\n\r\n    constructor(address addrOfVerifier) public {\r\n        // I used the same concept used in app and data\r\n        // squareVerifier = Verifier(addrOfVerifier);\r\n        squareVerifier = SquareVerifier(addrOfVerifier);\r\n    }\r\n\r\n    // TODO Create a function to add the solutions to the array and emit the event\r\n    function addSolution(\r\n        uint256 index1,\r\n        address address1,\r\n        uint256[2] memory A,\r\n        uint256[2][2] memory B,\r\n        uint256[2] memory C,\r\n        uint256[2] memory INPUT\r\n    ) public {\r\n        solutions memory Solution1 = solutions({\r\n            index: index1,\r\n            addressSol: address1,\r\n            solutionProvided: 1\r\n        });\r\n        bytes32 uniqueKey = keccak256(abi.encodePacked(A, B, C, INPUT));\r\n        uniqueSolutions[uniqueKey] = Solution1;\r\n        solutionsArray.push(Solution1);\r\n        emit solutionAdded(address1, index1);\r\n    }\r\n\r\n    // I made this function to assist me in testing to make sure that a solution was added\r\n    function getSolutionsCount() public view returns (uint256) {\r\n        return solutionsArray.length;\r\n    }\r\n\r\n    // TODO Create a function to mint new NFT only after the solution has been verified\r\n    //  - make sure the solution is unique (has not been used before)\r\n    //  - make sure you handle metadata as well as tokenSuplly\r\n    function tokenMint(\r\n        uint256[2] memory A,\r\n        uint256[2][2] memory B,\r\n        uint256[2] memory C,\r\n        uint256[2] memory INPUT,\r\n        uint256 ID\r\n    ) public returns (bool) {\r\n        bytes32 uniqueKeyCheck = keccak256(abi.encodePacked(A, B, C, INPUT));\r\n        require(\r\n            uniqueSolutions[uniqueKeyCheck].solutionProvided == 0,\r\n            \"Solution used before!\"\r\n        );\r\n        require(squareVerifier.verifyTx(A, B, C, INPUT), \"Incorrect Solution!\");\r\n        addSolution(ID, msg.sender, A, B, C, INPUT);\r\n        bool check = mint(msg.sender, ID);\r\n        return check;\r\n    }\r\n}\r\n\r\n// contract Verifier {\r\n//     function verifyTx(\r\n//         uint256[2] memory a,\r\n//         uint256[2][2] memory b,\r\n//         uint256[2] memory c,\r\n//         uint256[2] memory input\r\n//     ) public view returns (bool r);\r\n// }\r\n",
  "sourcePath": "E:/capstone/blockchain-capstone/eth-contracts/contracts/SolnSquareVerifier.sol",
  "compiler": {
    "name": "solc",
    "version": "0.5.17+commit.d19bba13.Emscripten.clang"
  },
  "schemaVersion": "3.2.5",
  "updatedAt": "2020-11-23T18:47:24.592Z",
  "networkType": "ethereum",
  "devdoc": {
    "methods": {
      "isApprovedForAll(address,address)": {
        "details": "Tells whether an operator is approved by a given owner",
        "params": {
          "operator": "operator address which you want to query the approval of",
          "owner": "owner address which you want to query the approval of"
        },
        "return": "bool whether the given operator is approved by the given owner"
      },
      "setApprovalForAll(address,bool)": {
        "details": "Sets or unsets the approval of a given operator An operator is allowed to transfer all tokens of the sender on their behalf",
        "params": {
          "approved": "representing the status of the approval to be set",
          "to": "operator address to set the approval"
        }
      },
      "supportsInterface(bytes4)": {
        "details": "implement supportsInterface(bytes4) using a lookup table"
      },
      "tokenByIndex(uint256)": {
        "details": "Gets the token ID at a given index of all the tokens in this contract Reverts if the index is greater or equal to the total number of tokens",
        "params": {
          "index": "uint256 representing the index to be accessed of the tokens list"
        },
        "return": "uint256 token ID at the given index of the tokens list"
      },
      "tokenOfOwnerByIndex(address,uint256)": {
        "details": "Gets the token ID at a given index of the tokens list of the requested owner",
        "params": {
          "index": "uint256 representing the index to be accessed of the requested tokens list",
          "owner": "address owning the tokens list to be accessed"
        },
        "return": "uint256 token ID at the given index of the tokens list owned by the requested address"
      },
      "totalSupply()": {
        "details": "Gets the total amount of tokens stored by the contract",
        "return": "uint256 representing the total amount of tokens"
      }
    }
  },
  "userdoc": {
    "methods": {}
  }
}